:04000000C5EF3FF019
:107F8A000001CFEF3FF0030EE82EFED700F0012EDE
:107F9A00FAD71200026E000E036E0250026E010E34
:107FAA00046E0250000E956EF19E7C80000E7F6E6C
:107FBA00938004C08CFFD8900436046604D0026E05
:107FCA00010E046E025081A0FED7026E050E036EEA
:107FDA00025081B002D0032A04D0026E000E036E52
:107FEA000250026E190E016E0250C8EC3FF0040EE8
:067FFA000364EFD7DED79F
:020000040020DA
:08000000FFFFFFFFFFFFFFFF00
:020000040030CA
:0E000000FF08071EFF0B81FF0FC00FE00F402F
:00000001FF
